:020000040800F2
:10000000700700203D3D0008AD030008AF03000865
:10001000B3030008B7030008BB030008000000009A
:10002000000000000000000000000000BF03000806
:10003000C103000800000000C3030008C503000856
:10004000573D0008573D0008573D0008573D000840
:10005000573D0008573D0008573D0008573D000830
:10006000573D0008573D0008573D0008573D000820
:10007000573D0008573D0008573D0008573D000810
:10008000573D0008573D0008573D0008573D000800
:10009000573D0008573D0008573D0008573D0008F0
:1000A000573D0008573D0008573D0008573D0008E0
:1000B000573D0008573D0008573D0008573D0008D0
:1000C000573D0008573D0008573D0008573D0008C0
:1000D000573D0008B13C0008573D0008573D000857
:1000E000573D0008573D0008573D0008573D0008A0
:1000F000573D0008573D0008573D0008573D000890
:10010000573D0008573D0008573D0008573D00087F
:10011000573D0008573D0008573D0008573D00086F
:10012000573D0008573D0008573D0008573D00085F
:1001300000F002F800F042F80AA090E8000C8244B7
:100140008344AAF10107DA4501D100F037F8AFF294
:10015000090EBAE80F0013F0010F18BFFB1A43F0A5
:10016000010318470C7400002C740000103A24BFDF
:1001700078C878C1FAD8520724BF30C830C144BF0C
:1001800004680C607047000000230024002500264E
:10019000103A28BF78C1FBD8520728BF30C148BFEA
:1001A0000B607047642905F04B81782905F0848144
:1001B000002070471FB51FBD10B510BD05F034FA03
:1001C0001146FFF7F7FF00F009F805F052FA03B403
:1001D000FFF7F2FF03BC03F011FD00001CB503F0B4
:1001E000A3FC4FF4A06003F0C9FD4FF4E13003F02D
:1001F00013FD00F0D9F900F04DFE03F021FC4FF49F
:1002000078404F4908804FA010210B46C822CDE905
:10021000001032213C2003F0D4FB4DA010210B46EE
:10022000C822CDE9001046213C2003F0CAFB4BA0B8
:1002300010210B46C822CDE900105A213C2003F0C2
:10024000C0FB4AA010210B46C822CDE900106E2148
:100250003C2003F0B6FB1F203949088046A010213E
:100260000B46C822CDE9001082213C2003F0A9FBF7
:1002700045A010210B46C822CDE9001096213C2054
:1002800003F09FFB5AE00A21012003F032FC0446F0
:10029000214642A005F094F80020102104232246B4
:1002A000CDE9001082219C2003F02CFB204605F0B4
:1002B0000BFC824605F05AFB07464FF06632384B7E
:1002C00005F056FA054605F0E1F98146484605F085
:1002D000DBFB84B2214631A005F072F8002010212A
:1002E00001232246CDE9001096219C2003F00AFB51
:1002F000204605F0E9FB0546494605F0C5FC814668
:100300002849484605F0F4FB8146484605F0BCFB09
:1003100005468020102103232A46CDE900109621AE
:10032000AC2003F0EFFA2048006808B9012000E093
:1003300000201D490860FA2003F033FCA3E7000009
:1003400014000020456C6974652053544D3332000D
:1003500041444320544553540000000041544F4D44
:1003600040414C49454E54454B0000003230313538
:100370002F312F31340000004144435F4348305F48
:1003800056414C3A000000004144435F4348305F0F
:10039000564F4C3A302E30303056000025640D0058
:1003A00066664A3F00007A4494812142704700BF4C
:1003B000FEE700BFFEE700BFFEE700BFFEE77047B5
:1003C00070477047704700000CB500200190009006
:1003D0006C48006840F480306A49086000BF694892
:1003E000006800F4003000900198401C01900098D3
:1003F00018B90198B0F5A06FF1D16248006800F417
:10040000003010B10120009001E000200090009821
:10041000012843D15C48006840F010005A49086048
:100420000846006820F0030008600846006840F0B5
:1004300002000860534840685249486008464068D6
:1004400048600846406840F480604860084640685C
:1004500020F47C1048600846406840F4E81048608A
:100460000846006840F08070086000BF454800689A
:1004700000F000700028F9D04248406820F00300E6
:10048000404948600846406840F00200486000BFAC
:100490003C48406800F00C000828F9D10CBD10B5AC
:1004A000FFF792FF10BD10B53648006840F001001C
:1004B000344908600846406834490840314948607A
:1004C00008460068324908402E490860084600681E
:1004D00020F4802008600846406820F4FE00486050
:1004E0004FF41F008860FFF7DAFF4FF000602949E2
:1004F000086010BD10B5002100200022214B5B6870
:1005000003F00C0121B1042906D0082928D107E005
:10051000214B224C236027E01F4B204C236023E01B
:10052000184B5B6803F47010164B5B6803F4803261
:10053000022303EB904022B9194B4343174C23602D
:100540000DE0104B5B6803F4003323B1144B4343BD
:10055000124C236003E0104B4343104C236003E034
:100560000D4B0E4C236000BF00BF064B5B68C3F30E
:1005700003130C4CE15C094B1B68CB40074C236018
:1005800010BD000000100240002002400000FFF8F3
:10059000FFFFF6FE08ED00E000127A0000000020E8
:1005A00000093D000400002008B50121482004F0A6
:1005B0009DFC2020ADF8000010208DF803000320E2
:1005C0008DF802006946094804F0D4F92021074853
:1005D00004F07DFA2020ADF800006946044804F0DC
:1005E000C9F92021024804F072FA08BD000C01404C
:1005F00000180140FE4908807047FD49891C0880A9
:10060000704708B5FA48801C00880090BDF80000CB
:1006100008BDF74A1080921C1180704710B504463F
:100620002046FFF7E7FF052003F097FAFFF7E9FF01
:1006300010BDF0480089EE4908807047EC49891CDC
:100640000880704730B5014601F01F04C1F345131F
:10065000CA0AE50205EB43151544A8B230BD00BF38
:10066000011EA0F10102D0B2FAD1704700B50246D6
:100670000B46E048808841F66311884247D1DD4847
:100680008079A8B9DB480088401E801A82B2D94917
:100690004889FFF7AFFF0020FFF7AFFF0020FFF70B
:1006A000ACFF1012FFF7A9FFD0B2FFF7A6FF16E0CC
:1006B000D0494889FFF79EFF1012FFF79EFFD0B286
:1006C000FFF79BFFCB490988491EC1F30F20FFF7B5
:1006D00094FFC8490978491EC8B2FFF78EFFC54983
:1006E0008889FFF787FF1812FFF787FFD8B2FFF757
:1006F00084FFC0494988491EC1F30F20FFF77DFFE1
:10070000BC498978491EC8B2FFF777FF3AE0B9487B
:10071000808845F21051884220D1B6494889FFF7B8
:1007200069FF1012FFF769FFB2494989491C88B275
:10073000FFF760FFD0B2FFF760FFAE498889FFF78F
:1007400059FF1812FFF759FFAA498989491C88B235
:10075000FFF750FFD8B2FFF750FF13E0A5494889D3
:10076000FFF748FF1012FFF748FFD0B2FFF745FF31
:10077000A0498889FFF73EFF1812FFF73EFFD8B265
:10078000FFF73BFF00BD2DE9F04105460E469948B5
:100790000088A84203DD97484088B04202DC002070
:1007A000BDE8F08131462846FFF760FF9148808818
:1007B00045F21051884204D14FF43850FFF71AFF28
:1007C00002E02E20FFF716FFFFF71BFF04468948C3
:1007D000808841F66311884201D12046E0E7FFF7A7
:1007E00010FF0446FFF70DFF8046E7B24FF6FF709B
:1007F00000EA0727E012C002B91240EA411040EABD
:10080000E820CDE700B57B48808845F2105188424A
:1008100004D14FF42450FFF7EDFE02E02920FFF74A
:10082000E9FE00BD00B57348808845F2105188424A
:1008300004D14FF42050FFF7DDFE02E02820FFF73F
:10084000D9FE00BD70B504460023002669488079B2
:10085000012805D16748808841F66311884208D194
:1008600064488079F0B96348808841F66311884212
:1008700018D1082C15D2DFE804F00406080A0C0E83
:10088000101206240DE007240BE0042409E00524DF
:1008900007E0012405E0002403E0032401E0022432
:1008A00000BF00BF082C1CD2DFE804F00406090CCE
:1008B0000F12151800BF14E043F0800311E043F05D
:1008C00040030EE043F0C0030BE043F0200308E0D8
:1008D00043F0600305E043F0A00302E043F0E003CF
:1008E00000BF00BF4348808845F21051884202D1C2
:1008F0004FF4585600E036263E48808849F2413190
:10090000884205D03B48808847F28971884201D1EE
:1009100043F0080319463046FFF77BFE35488088D0
:1009200041F6631188421DD003F0200068B13148C0
:10093000008830494988884214DA2E480588408862
:100940002C490880084645800CE02A48008829493F
:100950004988884206DD274805884088254908805F
:10096000084645802348808845F21051884257D177
:1009700020494889FFF73EFE0020FFF73EFE1D4953
:100980004989491C88B2FFF735FE0020FFF735FE84
:1009900018494989891C88B2FFF72CFE1549098836
:1009A000491EC1F30F20FFF728FE12494989C91CCF
:1009B00088B2FFF71FFE0F490978491EC8B2FFF73A
:1009C0001CFE0C498889FFF715FE0020FFF715FE75
:1009D00008498989491C88B2FFF70CFE0020FFF7FF
:1009E0000CFE04498989891C88B2FFF703FE03E0E5
:1009F000FE07006C38000020FE494988491EC1F3FB
:100A00000F20FFF7FAFDFB498989C91C88B2FFF75F
:100A1000F1FDF8498978491EC8B2FFF7EEFD2DE0D7
:100A2000F4494889FFF7E6FD0020FFF7E6FD0020C6
:100A3000FFF7E3FDEF490988491EC1F30F20FFF7D7
:100A4000DCFDEC490978491EC8B2FFF7D6FDE9493B
:100A50008889FFF7CFFD0020FFF7CFFD0020FFF7CB
:100A6000CCFDE4494988491EC1F30F20FFF7C5FDBD
:100A7000E0498978491EC8B2FFF7BFFD70BD30B5A7
:100A800004460D4629462046FFF7F0FDFFF7D1FD4D
:100A9000D9480088D949088030BD10B503460C46B6
:100AA000D448808845F21051884220D1D1494889E4
:100AB000FFF7A0FD1812FFF7A0FDCE494989491C98
:100AC00088B2FFF797FDD8B2FFF797FDC94988892B
:100AD000FFF790FD2012FFF790FDC6498989491C58
:100AE00088B2FFF787FDE0B2FFF787FD42E0C1481B
:100AF000808841F66311884228D1BE48807920B9A8
:100B0000BC480088401EC01A83B2BA494889FFF722
:100B100071FD1812FFF771FDD8B2FFF76EFD1812C4
:100B2000FFF76BFDD8B2FFF768FDB2498889FFF780
:100B300061FD2012FFF761FDE0B2FFF75EFD2012BC
:100B4000FFF75BFDE0B2FFF758FD13E0A9494889C4
:100B5000FFF750FD1812FFF750FDD8B2FFF74DFD1B
:100B6000A4498889FFF746FD2012FFF746FDE0B251
:100B7000FFF743FD9F480089A049891E0880881C13
:100B8000028010BD2DE9F0470446BE20FFF732FD7C
:100B90000520FFF732FD204604F0D7FD07464FF051
:100BA0006632974B04F0E4FD054604F0A1FD1FFA00
:100BB00080F94846FFF721FD0120FFF71EFDFF20C9
:100BC000FFF71BFD0020FFF718FD0020FFF715FDC4
:100BD000BDE8F08710B5044686488471002C45D1E5
:100BE000F020844908804FF4A0704880084680882F
:100BF00045F21051884210D14FF430507D490881A0
:100C00004FF4285048814FF42C5088814FF4F070F5
:100C100008804FF4487048801AE07648808841F692
:100C2000631188420DD12C20724908812B20488104
:100C30002A2088814FF4F07008804FF44870488073
:100C400006E02C206B4908812A2048812B208881CE
:100C50006848808845F2103188424CD14FF4A0702A
:100C6000644908804FF4F070488044E04FF4A0706D
:100C700060490880F02048800846808845F210517D
:100C8000884210D14FF430505A4908814FF428500F
:100C900048814FF42C5088814FF4487008804FF4FD
:100CA000F07048801AE05348808841F6631188420A
:100CB0000DD12C204F4908812A2048812B20888182
:100CC0004FF4487008804FF4F070488006E02C2004
:100CD000484908812A2048812B20888145488088FE
:100CE00045F21031884206D14FF4F0704149088036
:100CF0004FF4A07048800020FFF7A4FD10BDF0B5B0
:100D000004460D46A018401E86B2E818401E87B261
:100D10003848808841F66311884231D1354880795E
:100D200001282DD033480088801A001B84B2E818AF
:100D3000401E83B22F494889FFF75CFC2012FFF761
:100D40005CFCE0B2FFF759FCA118491EC1F30F206B
:100D5000FFF753FCA118491EC8B2FFF74EFC254906
:100D60008889FFF747FC2812FFF747FCE8B2FFF736
:100D700044FC1812FFF741FCD8B2FFF73EFC73E0C9
:100D80001C48808845F2105188424DD11949488944
:100D9000FFF730FC2012FFF730FC16494989491C47
:100DA00088B2FFF727FCE0B2FFF727FC1149498919
:100DB000891C88B2FFF71EFC3012FFF71EFC0D499C
:100DC0004989C91C88B2FFF715FCF0B2FFF715FC82
:100DD00008498889FFF70EFC2812FFF70EFC054929
:100DE0008989491C88B2FFF705FCE8B2FFF705FCCA
:100DF000004907E038000020140000200008006CC3
:100E0000666604408989891C88B2FFF7F3FB3812B3
:100E1000FFF7F3FBFE498989C91C88B2FFF7EAFB9B
:100E2000F8B2FFF7EAFB1FE0F9494889FFF7E2FB58
:100E30002012FFF7E2FBE0B2FFF7DFFB3012FFF713
:100E4000DCFBF0B2FFF7D9FBF1498889FFF7D2FB51
:100E50002812FFF7D2FBE8B2FFF7CFFB3812FFF7FB
:100E6000CCFBF8B2FFF7C9FBF0BD70B50446002615
:100E7000E74805884088454300210846FFF7F6FB10
:100E8000FFF7D7FB00BF02E0E2480480761CAE42C9
:100E9000FAD370BD00B59FB00121080204F019F823
:100EA00001214FF4B47004F021F80120ADF878006E
:100EB00010208DF87B0003208DF87A001EA9D648FB
:100EC00003F058FD4CF23370ADF8780018208DF81F
:100ED0007B0003208DF87A001EA9D04803F04AFD5C
:100EE0004FF68070ADF8780018208DF87B00032055
:100EF0008DF87A001EA9CA4803F03CFD41F20100BA
:100F0000ADF8780018208DF87B0003208DF87A006A
:100F10001EA9C44803F02EFD01200890002009906E
:100F20000F200A9000200B900C900D900E900190D5
:100F300002900320039000200490059006900790F3
:100F400006200F9000201090119010201290002089
:100F5000139015901490169017904FF4805018909D
:100F6000002019904FF480401A9000201B9008A890
:100F70001C9001A81D900FA803F0E2F901210620A2
:100F800003F046FB322002F00CFED320FFF732FBC9
:100F9000FFF737FB9E498880FFF733FB9C49888029
:100FA000FFF72FFB9A498880084680884FF6FF712B
:100FB00001EA002096498880FFF723FB944989883D
:100FC0000843934988800846808849F24131884225
:100FD0007DD00420FFF70EFBFFF713FB8C498880C0
:100FE000FFF70FFB8A498880FFF70BFB8849888051
:100FF000084680884FF6FF7101EA00208449888006
:10100000FFF7FFFA824989880843814988800846AA
:10101000808848F25251884203D147F289707C4956
:1010200088807B48808847F289718842D0D0D4205C
:10103000FFF7E0FAFFF7E5FA75498880FFF7E1FA74
:1010400073498880FFF7DDFA7149888008468088F7
:101050004FF6FF7101EA00206D498880FFF7D1FA51
:101060006B49898808436A4988800846808845F228
:101070001031884262D055214FF47040FFF7C9FA11
:10108000AA214FF20100FFF7C4FA52214FF20200E9
:10109000FFF7BFFA08214FF20300FFF7BAFA012168
:1010A0004FF20400FFF7B5FA4FF44540FFF7A2FAFC
:1010B000FFF7A7FA56498880084680884FF6FF71E7
:1010C00001EA0020524988804CF2015000E035E0EE
:1010D000FFF790FAFFF795FA4D49898808434C4984
:1010E0008880052002F05DFD4948808845F2105156
:1010F000884223D0A120FFF77DFAFFF782FA444906
:101100008880FFF77EFA42498880084680884FF63B
:10111000FF7101EA00203E498880FFF772FA3C49DE
:10112000898808433A4988800846808845F2617179
:10113000884203D141F6631035498880344881885C
:1011400039A004F03DF93248808849F241318842A3
:1011500072D1CF20FFF74EFA0020FFF74EFAC120E0
:10116000FFF74BFA3020FFF748FAED20FFF742FA7D
:101170006420FFF742FA0320FFF73FFA1220FFF73F
:101180003CFA8120FFF739FAE820FFF733FA85208F
:10119000FFF733FA1020FFF730FA7A20FFF72DFA25
:1011A000CB20FFF727FA3920FFF727FA2C20FFF78B
:1011B00024FA0020FFF721FA3420FFF71EFA02205C
:1011C000FFF71BFAF720FFF715FA2020FFF715FAB3
:1011D000EA20FFF70FFA0020FFF70FFA0020FFF7D1
:1011E0000CFAC020FFF706FA1B20FFF706FAC12011
:1011F000FFF700FA0120FFF700FAC520FFF7FAF920
:101200003020FFF7FAF93020FFF7F7F9C72014E094
:10121000380000200008006C000C01400014014060
:101220000018014000200140204C43442049443A2A
:1012300025780D0A00000000B7E0FFF7DBF9B720C2
:10124000FFF7DBF93620FFF7D5F94820FFF7D5F98E
:101250003A20FFF7CFF95520FFF7CFF9B120FFF77C
:10126000C9F90020FFF7C9F91A20FFF7C6F9B6201F
:10127000FFF7C0F90A20FFF7C0F9A220FFF7BDF978
:10128000F220FFF7B7F90020FFF7B7F92620FFF7A4
:10129000B1F90120FFF7B1F9E020FFF7ABF90F201A
:1012A000FFF7ABF92A20FFF7A8F92820FFF7A5F9E7
:1012B0000820FFF7A2F90E20FFF79FF90820FFF79B
:1012C0009CF95420FFF799F9A920FFF796F94320DC
:1012D000FFF793F90A20FFF790F90F20FFF78DF938
:1012E0000020FFF78AF90020FFF787F90020FFF7B9
:1012F00084F90020FFF781F9E120FFF77BF9002056
:10130000FFF77BF91520FFF778F91720FFF775F93C
:101310000720FFF772F91120FFF76FF90620FFF79A
:101320006CF92B20FFF769F95620FFF766F93C208E
:10133000FFF763F90520FFF760F91020FFF75DF96B
:101340000F20FFF75AF93F20FFF757F93F20FFF72B
:1013500054F90F20FFF751F92B20FFF74BF900202C
:10136000FFF74BF90020FFF748F90120FFF745F997
:101370003F20FFF742F92A20FFF73CF90020FFF752
:101380003CF90020FFF739F90020FFF736F9EF208C
:10139000FFF733F91120FFF72DF9782002F001FC57
:1013A0002920FFF727F902F0A6B8FE48808847F207
:1013B000897188427ED11120FFF71CF9782002F054
:1013C000F0FB3620FFF716F90020FFF716F93A2058
:1013D000FFF710F90520FFF710F9B220FFF70AF91F
:1013E0000C20FFF70AF90C20FFF707F90020FFF7A0
:1013F00004F93320FFF701F93320FFF7FEF8B72097
:10140000FFF7F8F83520FFF7F8F8BB20FFF7F2F800
:101410003220FFF7F2F8C020FFF7ECF80C20FFF7BE
:10142000ECF8C220FFF7E6F80120FFF7E6F8C3204A
:10143000FFF7E0F81020FFF7E0F8C420FFF7DAF834
:101440002020FFF7DAF8C620FFF7D4F80F20FFF7C7
:10145000D4F8D020FFF7CEF8A420FFF7CEF8A120D3
:10146000FFF7CBF8E020FFF7C5F8D020FFF7C5F86D
:101470000020FFF7C2F80220FFF7BFF80720FFF7B0
:10148000BCF80A20FFF7B9F82820FFF7B6F8322099
:10149000FFF7B3F84420FFF7B0F84220FFF7ADF8AC
:1014A0000620FFF7AAF80E20FFF7A7F81220FFF793
:1014B000A4F800E054E01420FFF79FF81720FFF78E
:1014C0009CF8E120FFF796F8D020FFF796F800206F
:1014D000FFF793F80220FFF790F80720FFF78DF849
:1014E0000A20FFF78AF82820FFF787F83120FFF756
:1014F00084F85420FFF781F84720FFF77EF80E208C
:10150000FFF77BF81C20FFF778F81720FFF775F836
:101510001B20FFF772F81E20FFF76FF82A20FFF755
:1015200069F80020FFF769F80020FFF766F800204F
:10153000FFF763F8EF20FFF760F82B20FFF75AF86A
:101540000020FFF75AF80020FFF757F80120FFF7B7
:1015500054F83F20FFF751F82920FFF74BF822E716
:101560009048808845F21031884240F07C87ED2019
:10157000FFF740F80120FFF740F8FE20FFF73DF8A5
:10158000EE20FFF737F8DE20FFF737F82120FFF7CE
:1015900034F8F120FFF72EF80120FFF72EF8DF20B6
:1015A000FFF728F81020FFF728F8C420FFF722F8EB
:1015B0008F20FFF722F8C620FFF71CF80020FFF766
:1015C0001CF8E220FFF719F8E220FFF716F8E220F6
:1015D000FFF713F8BF20FFF70DF8AA20FFF70DF86B
:1015E000B020FFF707F80D20FFF707F80020FFF7FE
:1015F00004F80D20FFF701F80020FEF7FEFF112090
:10160000FEF7FBFF0020FEF7F8FF1920FEF7F5FFBD
:101610000020FEF7F2FF2120FEF7EFFF0020FEF78B
:10162000ECFF2D20FEF7E9FF0020FEF7E6FF3D204E
:10163000FEF7E3FF0020FEF7E0FF5D20FEF7DDFF91
:101640000020FEF7DAFF5D20FEF7D7FF0020FEF74F
:10165000D4FFB120FEF7CEFF8020FEF7CEFF0020A2
:10166000FEF7CBFF8B20FEF7C8FF0020FEF7C5FF7B
:101670009620FEF7C2FF0020FEF7BFFFB220FEF764
:10168000B9FF0020FEF7B9FF0020FEF7B6FF0220E9
:10169000FEF7B3FF0020FEF7B0FF0320FEF7ADFF1B
:1016A0000020FEF7AAFFB320FEF7A4FF0020FEF7FC
:1016B000A4FF0020FEF7A1FF0020FEF79EFF002000
:1016C000FEF79BFF0020FEF798FF0020FEF795FF36
:1016D0000020FEF792FF0020FEF78FFF0020FEF7AC
:1016E0008CFF0020FEF789FF0020FEF786FF002018
:1016F000FEF783FF0020FEF780FF0020FEF77DFF4E
:101700000020FEF77AFF0020FEF777FF0020FEF7AB
:1017100074FF0020FEF771FF0020FEF76EFF00202F
:10172000FEF76BFF0020FEF768FF0020FEF765FF65
:101730000020FEF762FF0020FEF75FFFB420FEF7F7
:1017400059FF8B20FEF759FF0020FEF756FF962029
:10175000FEF753FF0020FEF750FFA120FEF74DFFDC
:101760000020FEF74AFFB520FEF744FF0220FEF7F7
:1017700044FF0020FEF741FF0320FEF73EFF00205C
:10178000FEF73BFF0420FEF738FF0020FEF735FF91
:10179000B620FEF72FFF0020FEF72FFF0020FEF7F8
:1017A0002CFF01E038000020B720FEF723FF0020C7
:1017B000FEF723FF0020FEF720FF3F20FEF71DFF6E
:1017C0000020FEF71AFF5E20FEF717FF0020FEF74D
:1017D00014FF6420FEF711FF0020FEF70EFF8C209F
:1017E000FEF70BFF0020FEF708FFAC20FEF705FF19
:1017F0000020FEF702FFDC20FEF7FFFE0020FEF7D0
:10180000FCFE7020FEF7F9FE0020FEF7F6FE9020A9
:10181000FEF7F3FE0020FEF7F0FEEB20FEF7EDFEF4
:101820000020FEF7EAFEDC20FEF7E7FE0020FEF7D0
:10183000E4FEB820FEF7DEFE0020FEF7DEFE00200C
:10184000FEF7DBFE0020FEF7D8FE0020FEF7D5FEF7
:101850000020FEF7D2FE0020FEF7CFFE0020FEF7AC
:10186000CCFE0020FEF7C9FEBA20FEF7C3FE2420FE
:10187000FEF7C3FE0020FEF7C0FE0020FEF7BDFE0F
:101880000020FEF7BAFEC120FEF7B4FE2020FEF7CE
:10189000B4FE0020FEF7B1FE5420FEF7AEFE00209D
:1018A000FEF7ABFEFF20FEF7A8FE0020FEF7A5FE28
:1018B000C220FEF79FFE0A20FEF79FFE0020FEF7E3
:1018C0009CFE0420FEF799FE0020FEF796FEC32042
:1018D000FEF790FE3C20FEF790FE0020FEF78DFE06
:1018E0003A20FEF78AFE0020FEF787FE3920FEF739
:1018F00084FE0020FEF781FE3720FEF77EFE0020EA
:10190000FEF77BFE3C20FEF778FE0020FEF775FE1A
:101910003620FEF772FE0020FEF76FFE3220FEF743
:101920006CFE0020FEF769FE2F20FEF766FE002009
:10193000FEF763FE2C20FEF760FE0020FEF75DFE42
:101940002920FEF75AFE0020FEF757FE2620FEF75C
:1019500054FE0020FEF751FE2420FEF74EFE00202C
:10196000FEF74BFE2420FEF748FE0020FEF745FE62
:101970002320FEF742FE0020FEF73FFE3C20FEF74C
:101980003CFE0020FEF739FE3620FEF736FE002032
:10199000FEF733FE3220FEF730FE0020FEF72DFE6C
:1019A0002F20FEF72AFE0020FEF727FE2C20FEF750
:1019B00024FE0020FEF721FE2920FEF71EFE002057
:1019C000FEF71BFE2620FEF718FE0020FEF715FE90
:1019D0002420FEF712FE0020FEF70FFE2420FEF763
:1019E0000CFE0020FEF709FE2320FEF706FE002075
:1019F000FEF703FEC420FEF7FDFD6220FEF7FDFDAD
:101A00000020FEF7FAFD0520FEF7F7FD0020FEF7A7
:101A1000F4FD8420FEF7F1FD0020FEF7EEFDF0203E
:101A2000FEF7EBFD0020FEF7E8FD1820FEF7E5FDD0
:101A30000020FEF7E2FDA420FEF7DFFD0020FEF708
:101A4000DCFD1820FEF7D9FD0020FEF7D6FD502062
:101A5000FEF7D3FD0020FEF7D0FD0C20FEF7CDFDF4
:101A60000020FEF7CAFD1720FEF7C7FD0020FEF795
:101A7000C4FD9520FEF7C1FD0020FEF7BEFDF3205A
:101A8000FEF7BBFD0020FEF7B8FDE620FEF7B5FD32
:101A90000020FEF7B2FDC520FEF7ACFD3220FEF7B8
:101AA000ACFD0020FEF7A9FD4420FEF7A6FD0020B6
:101AB000FEF7A3FD6520FEF7A0FD0020FEF79DFDCB
:101AC0007620FEF79AFD0020FEF797FD8820FEF7AE
:101AD00094FD0020FEF791FDC620FEF78BFD20202F
:101AE000FEF78BFD0020FEF788FD1720FEF785FD31
:101AF0000020FEF782FD0120FEF77FFD0020FEF7AB
:101B00007CFDC720FEF776FD0020FEF776FD002065
:101B1000FEF773FD0020FEF770FD0020FEF76DFD5F
:101B2000C820FEF767FD0020FEF767FD0020FEF7E6
:101B300064FD0020FEF761FD0020FEF75EFDC92078
:101B4000FEF758FD0020FEF758FD0020FEF755FD7A
:101B50000020FEF752FD0020FEF74FFD0020FEF7AB
:101B60004CFD0020FEF749FD0020FEF746FD002059
:101B7000FEF743FD0020FEF740FD0020FEF73DFD8F
:101B80000020FEF73AFD0020FEF737FD0020FEF7AB
:101B900034FD0020FEF731FD0020FEF72EFD002071
:101BA000FEF72BFDE020FEF725FD1620FEF725FDB4
:101BB0000020FEF722FD1C20FEF71FFD0020FEF78F
:101BC0001CFD2120FEF719FD0020FEF716FD362032
:101BD000FEF713FD0020FEF710FD4620FEF70DFD79
:101BE0000020FEF70AFD5220FEF707FD0020FEF759
:101BF00004FD6420FEF701FD0020FEF7FEFC7A20C4
:101C0000FEF7FBFC0020FEF7F8FC8B20FEF7F5FC4E
:101C10000020FEF7F2FC9920FEF7EFFC0020FEF713
:101C2000ECFCA820FEF7E9FC0020FEF7E6FCB9205A
:101C3000FEF7E3FC0020FEF7E0FCC420FEF7DDFC2D
:101C40000020FEF7DAFCCA20FEF7D7FC0020FEF7E2
:101C5000D4FCD220FEF7D1FC0020FEF7CEFCD92028
:101C6000FEF7CBFC0020FEF7C8FCE020FEF7C5FC29
:101C70000020FEF7C2FCF320FEF7BFFC0020FEF7B9
:101C8000BCFCE120FEF7B6FC1620FEF7B6FC0020F7
:101C9000FEF7B3FC1C20FEF7B0FC0020FEF7ADFC05
:101CA0002220FEF7AAFC0020FEF7A7FC3620FEF754
:101CB000A4FC0020FEF7A1FC4520FEF79EFC0020BE
:101CC000FEF79BFC5220FEF798FC0020FEF795FCE7
:101CD0006420FEF792FC0020FEF78FFC7A20FEF7CE
:101CE0008CFC0020FEF789FC8B20FEF786FC002090
:101CF000FEF783FC9920FEF780FC0020FEF77DFCB8
:101D0000A820FEF77AFC0020FEF777FCB920FEF74A
:101D100074FC0020FEF771FCC420FEF76EFC00206E
:101D2000FEF76BFCCA20FEF768FC0020FEF765FC9E
:101D3000D220FEF762FC0020FEF75FFCD820FEF701
:101D40005CFC0020FEF759FCE020FEF756FC00206A
:101D5000FEF753FCF320FEF750FC0020FEF74DFC8D
:101D6000E220FEF747FC0520FEF747FC0020FEF7C7
:101D700044FC0B20FEF741FC0020FEF73EFC1B203C
:101D8000FEF73BFC0020FEF738FC3420FEF735FC64
:101D90000020FEF732FC4420FEF72FFC0020FEF767
:101DA0002CFC4F20FEF729FC0020FEF726FC6120CA
:101DB000FEF723FC0020FEF720FC7920FEF71DFC37
:101DC0000020FEF71AFC8820FEF717FC0020FEF723
:101DD00014FC9720FEF711FC0020FEF70EFCA62055
:101DE000FEF70BFC0020FEF708FCB720FEF705FC11
:101DF0000020FEF702FCC220FEF7FFFB0020FEF7EA
:101E0000FCFBC720FEF7F9FB0020FEF7F6FBD12014
:101E1000FEF7F3FB0020FEF7F0FBD620FEF7EDFB0C
:101E20000020FEF7EAFBDD20FEF7E7FB0020FEF7CF
:101E3000E4FBF320FEF7E1FB0020FEF7DEFBE320EE
:101E4000FEF7D8FB0520FEF7D8FB0020FEF7D5FBF8
:101E50000A20FEF7D2FB0020FEF7CFFB1C20FEF786
:101E6000CCFB0020FEF7C9FB3320FEF7C6FB0020A9
:101E7000FEF7C3FB4420FEF7C0FB0020FEF7BDFBCE
:101E80005020FEF7BAFB0020FEF7B7FB6220FEF7FA
:101E9000B4FB0020FEF7B1FB7820FEF7AEFB00207C
:101EA000FEF7ABFB8820FEF7A8FB0020FEF7A5FBA2
:101EB0009720FEF7A2FB0020FEF79FFBA620FEF76F
:101EC0009CFB0020FEF799FBB720FEF796FB002055
:101ED000FEF793FBC220FEF790FB0020FEF78DFB80
:101EE000C720FEF78AFB0020FEF787FBD120FEF714
:101EF00084FB0020FEF781FBD520FEF77EFB00204F
:101F0000FEF77BFBDD20FEF778FB0020FEF775FB7C
:101F1000F320FEF772FB0020FEF76FFBE420FEF7D4
:101F200069FB0120FEF769FB0020FEF766FB01203C
:101F3000FEF763FB0020FEF760FB0220FEF75DFB6F
:101F40000020FEF75AFB2A20FEF757FB0020FEF781
:101F500054FB3C20FEF751FB0020FEF74EFB4B20CC
:101F6000FEF74BFB0020FEF748FB5D20FEF745FB2C
:101F70000020FEF742FB7420FEF73FFB0020FEF737
:101F80003CFB8420FEF739FB0020FEF736FB932054
:101F9000FEF733FB0020FEF730FBA220FEF72DFBFF
:101FA0000020FEF72AFBB320FEF727FB0020FEF7F8
:101FB00024FBBE20FEF721FB0020FEF71EFBC42001
:101FC000FEF71BFB0020FEF718FBCD20FEF715FBEC
:101FD0000020FEF712FBD320FEF70FFB0020FEF7D8
:101FE0000CFBDD20FEF709FB0020FEF706FBF320CB
:101FF000FEF703FB0020FEF700FBE520FEF7FAFAF0
:102000000020FEF7FAFA0020FEF7F7FA0020FEF7AC
:10201000F4FA0020FEF7F1FA0220FEF7EEFA0020B3
:10202000FEF7EBFA2920FEF7E8FA0020FEF7E5FAC2
:102030003C20FEF7E2FA0020FEF7DFFA4B20FEF725
:10204000DCFA0020FEF7D9FA5D20FEF7D6FA002070
:10205000FEF7D3FA7420FEF7D0FA0020FEF7CDFA8F
:102060008420FEF7CAFA0020FEF7C7FA9320FEF795
:10207000C4FA0020FEF7C1FAA220FEF7BEFA002043
:10208000FEF7BBFAB320FEF7B8FA0020FEF7B5FA68
:10209000BE20FEF7B2FA0020FEF7AFFAC420FEF72A
:1020A000ACFA0020FEF7A9FACD20FEF7A6FA002030
:1020B000FEF7A3FAD320FEF7A0FA0020FEF79DFA60
:1020C000DC20FEF79AFA0020FEF797FAF320FEF7DD
:1020D00094FA0020FEF791FAE620FEF78BFA112021
:1020E000FEF78BFA0020FEF788FA3420FEF785FA17
:1020F0000020FEF782FA5620FEF77FFA0020FEF756
:102100007CFA7620FEF779FA0020FEF776FA77203F
:10211000FEF773FA0020FEF770FA6620FEF76DFAFC
:102120000020FEF76AFA8820FEF767FA0020FEF723
:1021300064FA9920FEF761FA0020FEF75EFABB20F0
:10214000FEF75BFA0020FEF758FA9920FEF755FAE1
:102150000020FEF752FA6620FEF74FFA0020FEF745
:102160004CFA5520FEF749FA0020FEF746FA5520B2
:10217000FEF743FA0020FEF740FA4520FEF73DFA4D
:102180000020FEF73AFA4320FEF737FA0020FEF768
:1021900034FA4420FEF731FA0020FEF72EFAE72049
:1021A000FEF728FA3220FEF728FA0020FEF725FA7B
:1021B0005520FEF722FA0020FEF71FFA7620FEF7E0
:1021C0001CFA0020FEF719FA6620FEF716FA002026
:1021D000FEF713FA6720FEF710FA0020FEF70DFA5B
:1021E0006720FEF70AFA0020FEF707FA8720FEF7BD
:1021F00004FA0020FEF701FA9920FEF7FEF900200C
:10220000FEF7FBF9BB20FEF7F8F90020FEF7F5F921
:102210009920FEF7F2F90020FEF7EFF97720FEF79C
:10222000ECF90020FEF7E9F94420FEF7E6F900207A
:10223000FEF7E3F95620FEF7E0F90020FEF7DDF99E
:102240002320FEF7DAF90020FEF7D7F93320FEF756
:10225000D4F90020FEF7D1F94520FEF7CEF9002091
:10226000FEF7CBF9E820FEF7C5F90020FEF7C5F927
:102270000020FEF7C2F99920FEF7BFF90020FEF713
:10228000BCF98720FEF7B9F90020FEF7B6F98820DF
:10229000FEF7B3F90020FEF7B0F97720FEF7ADF9AD
:1022A0000020FEF7AAF96620FEF7A7F90020FEF746
:1022B000A4F98820FEF7A1F90020FEF79EF9AA20D4
:1022C000FEF79BF90020FEF798F9BB20FEF795F981
:1022D0000020FEF792F99920FEF78FF90020FEF713
:1022E0008CF96620FEF789F90020FEF786F9552063
:1022F000FEF783F90020FEF780F95520FEF77DF9FF
:102300000020FEF77AF94420FEF777F90020FEF767
:1023100074F94420FEF771F90020FEF76EF955209C
:10232000FEF76BF90020FEF768F9E920FEF762F985
:10233000AA20FEF762F90020FEF75FF90020FEF701
:102340005CF90020FEF759F90020FEF753F9AA20A6
:10235000FEF753F9CF20FEF74DF90020FEF74DF9B7
:102360000020FEF74AF90020FEF747F90020FEF7AB
:1023700044F90020FEF741F90020FEF73EF9002065
:10238000FEF73BF90020FEF738F90020FEF735F99B
:102390000020FEF732F90020FEF72FF90020FEF7AB
:1023A0002CF90020FEF729F90020FEF726F900207D
:1023B000FEF723F90020FEF720F90020FEF71DF9B3
:1023C000F020FEF717F90020FEF717F95020FEF76E
:1023D00014F90020FEF711F90020FEF70EF9002095
:1023E000FEF70BF9F320FEF705F90020FEF705F9DB
:1023F000F920FEF7FFF80620FEF7FFF81020FEF7A1
:10240000FCF82920FEF7F9F80020FEF7F6F83A204C
:10241000FEF7F0F85520FEF7F0F81120FEF7EAF885
:10242000642001F0BEFB2920FEF7E4F83520FEF71A
:10243000E1F80020FEF7E1F85120FEF7DBF8FF207D
:10244000FEF7DBF85320FEF7D5F82C20FEF7D5F881
:102450005520FEF7CFF88220FEF7CFF82C20FEF7AC
:10246000C9F801F048B8FE48808845F2105188420A
:102470007ED155214FF47040FEF7CBF8AA214FF2E0
:102480000100FEF7C6F852214FF20200FEF7C1F834
:1024900008214FF20300FEF7BCF801214FF20400BF
:1024A000FEF7B7F80D214FF43040FEF7B2F80D21DA
:1024B0004BF20100FEF7ADF80D214BF20200FEF7E2
:1024C000A8F834214FF43640FEF7A3F834214BF23C
:1024D0000160FEF79EF834214BF20260FEF799F896
:1024E0000D214FF43140FEF794F80D214BF201100D
:1024F000FEF78FF80D214BF20210FEF78AF8342117
:102500004FF43740FEF785F834214BF20170FEF7A7
:1025100080F834214BF20270FEF77BF800214FF473
:102520003240FEF776F800214BF20120FEF771F8F9
:1025300000214BF20220FEF76CF824214FF43840C2
:10254000FEF767F824214BF60100FEF762F824211C
:102550004BF60200FEF75DF801214FF43F40FEF715
:1025600058F80F214FF43340FEF753F80F2100E0E5
:10257000FEE34BF20130FEF74CF80F214BF2023034
:10258000FEF747F834214FF43940FEF742F8342182
:102590004BF60110FEF73DF834214BF60210FEF722
:1025A00038F808214FF43540FEF733F808214BF294
:1025B0000150FEF72EF808214BF20250FEF729F8E1
:1025C00003214FF44240FEF724F824214FF43A400F
:1025D000FEF71FF824214BF60120FEF71AF82421FC
:1025E0004BF60220FEF715F800214FF43C40FEF7B1
:1025F00010F878214BF60140FEF70BF800214BF65E
:102600000240FEF706F800214FF43D40FEF701F8C6
:1026100078214BF60150FDF7FCFF00214BF60250EC
:10262000FDF7F7FF00214FF43E40FDF7F2FF642174
:102630004BF60160FDF7EDFF00214FF45140FDF72F
:10264000E8FF33214DF20110FDF7E3FF00214DF2C9
:102650000210FDF7DEFF34214DF20310FDF7D9FF24
:1026600000214DF20410FDF7D4FF3A214DF2051080
:10267000FDF7CFFF00214DF20610FDF7CAFF4A21FA
:102680004DF20710FDF7C5FF00214DF20810FDF7D0
:10269000C0FF5C214DF20910FDF7BBFF00214DF298
:1026A0000A10FDF7B6FF81214DF20B10FDF7B1FFC7
:1026B00000214DF20C10FDF7ACFFA6214DF20D10DC
:1026C000FDF7A7FF00214DF20E10FDF7A2FFE52157
:1026D0004DF20F10FDF79DFF01214DF21010FDF797
:1026E00098FF13214DF21110FDF793FF01214DF2D8
:1026F0001210FDF78EFF54214DF21310FDF789FFE4
:1027000001214DF21410FDF784FF82214DF21510C6
:10271000FDF77FFF01214DF21610FDF77AFFCA2168
:102720004DF21710FDF775FF02214DF21810FDF75D
:1027300070FF00214DF21910FDF76BFF02214DF2E1
:102740001A10FDF766FF01214DF21B10FDF761FF26
:1027500002214DF21C10FDF75CFF34214DF21D10DB
:10276000FDF757FF02214DF21E10FDF752FF6721C2
:102770004DF21F10FDF74DFF02214DF22010FDF725
:1027800048FF84214DF22110FDF743FF02214DF255
:102790002210FDF73EFFA4214DF22310FDF739FF73
:1027A00002214DF22410FDF734FFB7214DF2251020
:1027B000FDF72FFF02214DF22610FDF72AFFCF2152
:1027C0004DF22710FDF725FF02214DF22810FDF7ED
:1027D00020FFDE214DF22910FDF71BFF02214DF2F3
:1027E0002A10FDF716FFF2214DF22B10FDF711FF15
:1027F00002214DF22C10FDF70CFFFE214DF22D10A1
:10280000FDF707FF03214DF22E10FDF702FF102107
:102810004DF22F10FDF7FDFE03214DF23010FDF7B4
:10282000F8FE33214DF23110FDF7F3FE03214DF296
:102830003210FDF7EEFE6D214DF23310FDF7E9FE8B
:1028400000214FF45240FDF7E4FE33214DF2012008
:10285000FDF7DFFE00214DF20220FDF7DAFE01E078
:102860003800002034214DF20320FDF7D2FE002174
:102870004DF20420FDF7CDFE3A214DF20520FDF783
:10288000C8FE00214DF20620FDF7C3FE4A214DF29D
:102890000720FDF7BEFE00214DF20820FDF7B9FE2E
:1028A0005C214DF20920FDF7B4FE00214DF20A2013
:1028B000FDF7AFFE81214DF20B20FDF7AAFE0021AE
:1028C0004DF20C20FDF7A5FEA6214DF20D20FDF7DF
:1028D000A0FE00214DF20E20FDF79BFEE5214DF2FA
:1028E0000F20FDF796FE01214DF21020FDF791FE1D
:1028F00013214DF21120FDF78CFE01214DF2122023
:10290000FDF787FE54214DF21320FDF782FE0121D1
:102910004DF21420FDF77DFE82214DF21520FDF7CA
:1029200078FE01214DF21620FDF773FECA214DF20B
:102930001720FDF76EFE02214DF21820FDF769FE0B
:1029400000214DF21920FDF764FE02214DF21A20FC
:10295000FDF75FFE01214DF21B20FDF75AFE02211B
:102960004DF21C20FDF755FE34214DF21D20FDF7E0
:1029700050FE02214DF21E20FDF74BFE67214DF265
:102980001F20FDF746FE02214DF22020FDF741FEFB
:1029900084214DF22120FDF73CFE02214DF2222040
:1029A000FDF737FEA4214DF22320FDF732FE022170
:1029B0004DF22420FDF72DFEB7214DF22520FDF725
:1029C00028FE02214DF22620FDF723FECF214DF2F5
:1029D0002720FDF71EFE02214DF22820FDF719FEEB
:1029E000DE214DF22920FDF714FE02214DF22A20AE
:1029F000FDF70FFEF2214DF22B20FDF70AFE02211A
:102A00004DF22C20FDF705FEFE214DF22D20FDF7A5
:102A100000FE03214DF22E20FDF7FBFD10214DF2AB
:102A20002F20FDF7F6FD03214DF23020FDF7F1FDDB
:102A300033214DF23120FDF7ECFD03214DF2322020
:102A4000FDF7E7FD6D214DF23320FDF7E2FD00219A
:102A50004FF45340FDF7DDFD33214DF20130FDF71A
:102A6000D8FD00214DF20230FDF7D3FD34214DF2A7
:102A70000330FDF7CEFD00214DF20430FDF7C9FD16
:102A80003A214DF20530FDF7C4FD00214DF206302C
:102A9000FDF7BFFD4A214DF20730FDF7BAFD0021D9
:102AA0004DF20830FDF7B5FD5C214DF20930FDF720
:102AB000B0FD00214DF20A30FDF7ABFD81214DF252
:102AC0000B30FDF7A6FD00214DF20C30FDF7A1FD06
:102AD000A6214DF20D30FDF79CFD00214DF20E3088
:102AE000FDF797FDE5214DF20F30FDF792FD012135
:102AF0004DF21030FDF78DFD13214DF21130FDF731
:102B000088FD01214DF21230FDF783FD54214DF275
:102B10001330FDF77EFD01214DF21430FDF779FDF4
:102B200082214DF21530FDF774FD01214DF2163072
:102B3000FDF76FFDCA214DF21730FDF76AFD022146
:102B40004DF21830FDF765FD00214DF21930FDF70B
:102B500060FD02214DF21A30FDF75BFD01214DF2BF
:102B60001B30FDF756FD02214DF21C30FDF751FDE3
:102B700034214DF21D30FDF74CFD02214DF21E3087
:102B8000FDF747FD67214DF21F30FDF742FD0221A1
:102B90004DF22030FDF73DFD84214DF22130FDF74F
:102BA00038FD02214DF22230FDF733FDA4214DF214
:102BB0002330FDF72EFD02214DF22430FDF729FDD3
:102BC000B7214DF22530FDF724FD02214DF22630CC
:102BD000FDF71FFDCF214DF22730FDF71AFD022131
:102BE0004DF22830FDF715FDDE214DF22930FDF7BD
:102BF00010FD02214DF22A30FDF70BFDF2214DF2BE
:102C00002B30FDF706FD02214DF22C30FDF701FDC2
:102C1000FE214DF22D30FDF7FCFC03214DF22E304C
:102C2000FDF7F7FC10214DF22F30FDF7F2FC0321E8
:102C30004DF23030FDF7EDFC33214DF23130FDF730
:102C4000E8FC03214DF23230FDF7E3FC6D214DF23B
:102C50003330FDF7DEFC00214FF45440FDF7D9FC82
:102C600033214DF20140FDF7D4FC00214DF202402A
:102C7000FDF7CFFC34214DF20340FDF7CAFC0021E3
:102C80004DF20440FDF7C5FC3A214DF20540FDF739
:102C9000C0FC00214DF20640FDF7BBFC4A214DF27D
:102CA0000740FDF7B6FC00214DF20840FDF7B1FCEE
:102CB0005C214DF20940FDF7ACFC00214DF20A40C9
:102CC000FDF7A7FC81214DF20B40FDF7A2FC00218E
:102CD0004DF20C40FDF79DFCA6214DF20D40FDF795
:102CE00098FC00214DF20E40FDF793FCE5214DF2DA
:102CF0000F40FDF78EFC01214DF21040FDF789FCDD
:102D000013214DF21140FDF784FC01214DF21240D8
:102D1000FDF77FFC54214DF21340FDF77AFC0121B1
:102D20004DF21440FDF775FC82214DF21540FDF780
:102D300070FC01214DF21640FDF76BFCCA214DF2EB
:102D40001740FDF766FC02214DF21840FDF761FCCB
:102D500000214DF21940FDF75CFC02214DF21A40B2
:102D6000FDF757FC01214DF21B40FDF752FC00E03E
:102D700003E302214DF21C40FDF74BFC34214DF2E0
:102D80001D40FDF746FC02214DF21E40FDF741FCBF
:102D900067214DF21F40FDF73CFC02214DF220401F
:102DA000FDF737FC84214DF22140FDF732FC022172
:102DB0004DF22240FDF72DFCA4214DF22340FDF7FA
:102DC00028FC02214DF22440FDF723FCB7214DF2EF
:102DD0002540FDF71EFC02214DF22640FDF719FCAF
:102DE000CF214DF22740FDF714FC02214DF228407F
:102DF000FDF70FFCDE214DF22940FDF70AFC022110
:102E00004DF22A40FDF705FCF2214DF22B40FDF773
:102E100000FC02214DF22C40FDF7FBFBFE214DF2A0
:102E20002D40FDF7F6FB03214DF22E40FDF7F1FB9F
:102E300010214DF22F40FDF7ECFB03214DF2304005
:102E4000FDF7E7FB33214DF23140FDF7E2FB0321B3
:102E50004DF23240FDF7DDFB6D214DF23340FDF7C1
:102E6000D8FB00214FF45540FDF7D3FB33214DF241
:102E70000150FDF7CEFB00214DF20250FDF7C9FBDA
:102E800034214DF20350FDF7C4FB00214DF20450F4
:102E9000FDF7BFFB3A214DF20550FDF7BAFB0021CB
:102EA0004DF20650FDF7B5FB4A214DF20750FDF7F4
:102EB000B0FB00214DF20850FDF7ABFB5C214DF259
:102EC0000950FDF7A6FB00214DF20A50FDF7A1FBCA
:102ED00081214DF20B50FDF79CFB00214DF20C506F
:102EE000FDF797FBA6214DF20D50FDF792FB002157
:102EF0004DF20E50FDF78DFBE5214DF20F50FDF721
:102F000088FB01214DF21050FDF783FB13214DF298
:102F10001150FDF77EFB01214DF21250FDF779FBB8
:102F200054214DF21350FDF774FB01214DF2145062
:102F3000FDF76FFB82214DF21550FDF76AFB012171
:102F40004DF21650FDF765FBCA214DF21750FDF703
:102F500060FB02214DF21850FDF75BFB00214DF2A2
:102F60001950FDF756FB02214DF21A50FDF751FBA7
:102F700001214DF21B50FDF74CFB02214DF21C507C
:102F8000FDF747FB34214DF21D50FDF742FB0221B6
:102F90004DF21E50FDF73DFB67214DF21F50FDF72E
:102FA00038FB02214DF22050FDF733FB84214DF216
:102FB0002150FDF72EFB02214DF22250FDF729FB97
:102FC000A4214DF22350FDF724FB02214DF22450A1
:102FD000FDF71FFBB7214DF22550FDF71AFB02212B
:102FE0004DF22650FDF715FBCF214DF22750FDF78E
:102FF00010FB02214DF22850FDF70BFBDE214DF2B4
:103000002950FDF706FB02214DF22A50FDF701FB86
:10301000F2214DF22B50FDF7FCFA02214DF22C501B
:10302000FDF7F7FAFE214DF22D50FDF7F2FA0321DC
:103030004DF22E50FDF7EDFA10214DF22F50FDF715
:10304000E8FA03214DF23050FDF7E3FA33214DF257
:103050003150FDF7DEFA03214DF23250FDF7D9FA77
:103060006D214DF23350FDF7D4FA00214FF4564054
:10307000FDF7CFFA33214DF20160FDF7CAFA0021C6
:103080004DF20260FDF7C5FA34214DF20360FDF701
:10309000C0FA00214DF20460FDF7BBFA3A214DF26F
:1030A0000560FDF7B6FA00214DF20660FDF7B1FAB2
:1030B0004A214DF20760FDF7ACFA00214DF208609D
:1030C000FDF7A7FA5C214DF20960FDF7A2FA002195
:1030D0004DF20A60FDF79DFA81214DF20B60FDF77C
:1030E00098FA00214DF20C60FDF793FAA6214DF2FB
:1030F0000D60FDF78EFA00214DF20E60FDF789FAA2
:10310000E5214DF20F60FDF784FA01214DF21060C8
:10311000FDF77FFA13214DF21160FDF77AFA0121D4
:103120004DF21260FDF775FA54214DF21360FDF770
:1031300070FA01214DF21460FDF76BFA82214DF215
:103140001560FDF766FA01214DF21660FDF761FA90
:10315000CA214DF21760FDF75CFA02214DF21860AA
:10316000FDF757FA00214DF21960FDF752FA0221DE
:103170004DF21A60FDF74DFA01214DF21B60FDF78B
:1031800048FA02214DF21C60FDF743FA34214DF25A
:103190001D60FDF73EFA02214DF21E60FDF739FA7F
:1031A00067214DF21F60FDF734FA02214DF22060D5
:1031B000FDF72FFA84214DF22160FDF72AFA022152
:1031C0004DF22260FDF725FAA4214DF22360FDF7B0
:1031D00020FA02214DF22460FDF71BFAB7214DF2CF
:1031E0002560FDF716FA02214DF22660FDF711FA6F
:1031F000CF214DF22760FDF70CFA02214DF2286035
:10320000FDF707FADE214DF22960FDF702FA0221EF
:103210004DF22A60FDF7FDF9F2214DF22B60FDF72A
:10322000F8F902214DF22C60FDF7F3F9FE214DF281
:103230002D60FDF7EEF903214DF22E60FDF7E9F95F
:1032400010214DF22F60FDF7E4F903214DF23060BB
:10325000FDF7DFF933214DF23160FDF7DAF9032193
:103260004DF23260FDF7D5F96D214DF23360FDF777
:10327000D0F955214FF47040FDF7CBF9AA214FF258
:103280000100FDF7C6F952214FF20200FDF7C1F926
:1032900008214FF20300FDF7BCF900214FF20400B2
:1032A000FDF7B7F9CC214FF43140FDF7B2F9002119
:1032B0004BF20110FDF7ADF905214FF43640FDF753
:1032C000A8F970214FF43740FDF7A3F970214BF2B4
:1032D0000170FDF79EF901214FF43840FDF799F98F
:1032E00003214BF60100FDF794F903214BF6020090
:1032F000FDF78FF903214BF60300FDF78AF9022150
:103300004FF43C40FDF785F900214BF60140FDF7F5
:1033100080F900214BF60240FDF77BF9D0214FF4F4
:103320004940FDF776F902214CF60110FDF771F9DD
:1033300050214CF60210FDF76CF950214CF60310A9
:10334000FDF767F950214CF60410FDF762F90021F2
:103350004FF45450FDF75DF955214FF46850FDF7D7
:1033600058F94FF48850FDF745F9782000F0F5FB47
:103370004FF42450FDF73EF9BDE0FE48808841F649
:1033800063118842F8D1E220FDF734F91D20FDF7E2
:1033900034F90220FDF731F90420FDF72EF96420FD
:1033A00000F0DBFBE020FDF725F90120FDF725F912
:1033B0000A2000F0F6FBE020FDF71CF90320FDF7E2
:1033C0001CF90C2000F0EDFB0120FDF713F90A2099
:1033D00000F0E7FBE620FDF70DF92F20FDF70DF9D2
:1033E000FF20FDF70AF9FF20FDF707F9B020FDF7F0
:1033F00001F92020FDF701F90020FDF7FEF8032078
:10340000FDF7FBF840F21F30FDF7F7F80120FDF75C
:10341000F4F840F2DF10FDF7F0F80020FDF7EDF8CA
:10342000B420FDF7E7F80420FDF7E7F840F21F406D
:10343000FDF7E3F80020FDF7E0F82E20FDF7DDF8BA
:103440000020FDF7DAF80020FDF7D7F80020FDF79F
:10345000D4F80020FDF7D1F8B620FDF7CBF8022014
:10346000FDF7CBF84FF40370FDF7C7F80020FDF728
:10347000C4F81720FDF7C1F81520FDF7BEF80020AD
:10348000FDF7BBF80020FDF7B8F8F020FDF7B2F823
:103490000320FDF7B2F82920FDF7ACF8D020FDF7A6
:1034A000A9F80020FDF7A9F8BE20FDF7A3F8052034
:1034B000FDF7A3F8FE20FDF7A0F80120FDF79DF829
:1034C0000020FDF79AF80020FDF797F80020FDF79F
:1034D00094F8B820FDF78EF80320FDF78EF8012050
:1034E000FDF78BF8BA20FDF785F80120FDF785F888
:1034F0006420FDF747FB0020FDF76CFB01209E498F
:1035000008604FF6FF70FDF7B0FC1FB000BD2DE95D
:10351000F04F05460E4617469846DDF824A04FF0BA
:10352000000B781B401C1FFA80FB344613E0214639
:103530002846FDF79BF8FDF77CF84FF0000906E000
:103540008E48A0F800A009F101001FFA80F9D945C2
:10355000F6DB601C84B24445E9DDBDE8F08F2DE95F
:10356000F84F07460D4690469946DDF828B0A8EB7F
:103570000700401C1FFA80FAA9EB0500401C80B22E
:103580000090002414E0281981B23846FDF76EF847
:10359000FDF74FF8002607E004FB0A603BF8100037
:1035A00076490880701C86B25645F5DB601C84B2F3
:1035B00000988442E7DBBDE8F88F2DE9FF4F84B027
:1035C00081468A460020039002900698A0EB0905E8
:1035D0000798A0EB0A06CDF80490CDF800A0002DC6
:1035E00001DD012705E00DB9002702E04FF0FF37AC
:1035F0006D42002E02DD4FF0010806E016B94FF0D3
:10360000000802E04FF0FF387642B54201DD2C465B
:1036100000E034464FF0000B21E0009A91B2019A8D
:1036200090B2FDF72CFA0398284403900298304496
:1036300002900398A04205DD0398001B03900198B7
:10364000384401900298A04205DD0298001B0290C8
:103650000098404400900BF101001FFA80FB601CB1
:103660008345DADD08B0BDE8F08FF0B504460D46BD
:1036700016461F462B46324629462046FFF79DFF39
:103680003B46224629462046FFF797FF3B463246F7
:1036900039462046FFF791FF3B46324629463046E1
:1036A000FFF78BFFF0BD2DE9F04306460F4690462D
:1036B000002445460320A0EB48093CE07A1B91B268
:1036C000321990B2FDF7DBF93A1B91B2721990B240
:1036D000FDF7D5F93A1991B2721990B2FDF7CFF909
:1036E0007A1991B2321990B2FDF7C9F97A1991B2EB
:1036F000321B90B2FDF7C3F93A1991B2721B90B226
:10370000FDF7BDF97A1B91B2321B90B2FDF7B7F904
:103710003A1B91B2721B90B2FDF7B1F9641CB9F17A
:10372000000F03DAA000801D814404E0601B8000CC
:103730000A3081446D1EAC42C0DDBDE8F0832DE946
:10374000F84F80460E4617461C46B3462046E31700
:1037500004EB5373DB1021464FEAE47C04EB5C7C02
:103760004FEAEC0CA4EBCC0CBCF1000F08D04FF0EE
:10377000010C07E038000020808121420008006C25
:103780004FF0000C6344224604EBD27C4FEA6C0CF1
:1037900003FB0CF3DBB20093A7F12000C7B20025B6
:1037A00056E00C2C07D107EB47009F4901EB800046
:1037B00010F8059013E0102C05D19C4800EB071081
:1037C00010F805900BE0182C07D107EBC7009849BB
:1037D00001EB800010F8059001E0BDE8F88F4FF094
:1037E000000A2FE009F0800030B19248028831468B
:1037F0004046FDF752F907E00A9828B98E4802883A
:1038000031464046FDF749F94FEA49604FEA1069F1
:10381000701C86B289484088B04200DCDDE7A6EB28
:103820000B00A0420AD15E4608F101001FFA80F8A1
:1038300082480088404500DCCFE706E00AF101003D
:1038400000F0FF0ABAF1080FCCDB00BF681CC5B25C
:1038500000988542A5DB00BFBFE710B502460120F6
:1038600000E050430B1EA1F10104E1B2F9D110BDFB
:103870002DE9FF4F81B0074691461E460E9D4FF041
:10388000000A002439E0301B401EC1B20A20FFF7B5
:10389000E4FFB9FBF0F00A21B0FBF1F201FB1208E2
:1038A000BAF1000F16D1701EA04213DDB8F1000F5F
:1038B0000ED10020AB4605EBDB71491001FB047112
:1038C000009088B22B4620220299FFF738FF12E0C1
:1038D0004FF0010A0020AB4605EBDB71491001FBFC
:1038E0000471009088B208F13001CAB22B460299E7
:1038F000FFF725FF00BF601CC4B2B442C3DB05B0B4
:10390000BDE8F08F2DE9FF4F82B0064692461F4674
:10391000DDE90F480020019000254DE0781B401E96
:10392000C1B20A20FFF799FFBAFBF0F00A21B0FB01
:10393000F1F201FB1209019850BB781EA84227DD65
:10394000B9F1000F22D108F0800078B108F0010031
:10395000A34604EBDB71491001FB0561009088B2BE
:10396000234630220399FFF7EAFE0EE008F001003B
:10397000A34604EBDB71491001FB0561009088B29E
:10398000234620220399FFF7DAFE13E0012001907D
:1039900008F00100A34604EBDB71491001FB05614F
:1039A000009088B209F13001CAB223460399FFF7AB
:1039B000C6FE00BF681CC5B2BD42AFDB06B0BDE8A5
:1039C000F08F2DE9F84704460D4690469946DDE90B
:1039D000096704F0FF0A08EB04001FFA80F809EBFE
:1039E00005001FFA80F916E0444502DB5446A81989
:1039F00085B24D4500DB14E0002000903A78334654
:103A000029462046FFF79BFE304606EBD07104EBBB
:103A100061018CB27F1C38787E2802DC387820283F
:103A2000E2DA00BFBDE8F887865D0008FA610008A9
:103A3000EA6700081400002016000020380000206B
:103A400000B587B001214FF4017001F04FFA4FF437
:103A5000004001F0AFF90220ADF8040000208DF81D
:103A6000070001A92E4800F085FF2E4800F0F4F968
:103A7000002002908DF80C008DF80D004FF46020AE
:103A800004900020059001208DF8180002A9254817
:103A900000F009FA0121234800F031FA214800F032
:103AA00050FA00BF1F4800F051FA0028FAD11D4813
:103AB00000F056FA00BF1B4800F057FA0028FAD170
:103AC00007B000BD10B50446072301222146154862
:103AD00000F081FA0121134800F051FA00BF0221E1
:103AE000104800F0BDFB0028F9D00E4800F0DAFACB
:103AF00010BD2DE9F04107460C460025002608E0E0
:103B00003846FFF7DFFF0544052000F04AF8701C37
:103B1000C6B2A642F4DBB5FBF4F080B2BDE8F0819A
:103B2000000801400024014010B56FF0040000F0CF
:103B300074F92E4800682E49B0FBF1F02D49087049
:103B40000846007800EB4001C1EBC0104FF6FF7152
:103B500001EAC0002849088010BD0146254A1278B4
:103B60004A434FF0E0235A6100229A611A461269D3
:103B700042F001021A6100BF4FF0E022106900F02C
:103B800001021AB100F48032002AF5D04FF0E02291
:103B9000126922F001024FF0E0231A6100229A61BB
:103BA00070470146144A12884A434FF0E0235A6195
:103BB00000229A611A46126942F001021A6100BF9E
:103BC0004FF0E022106900F001021AB100F48032D7
:103BD000002AF5D04FF0E022126922F001024FF0E6
:103BE000E0231A6100229A61704700000000002063
:103BF00000127A00180000201A00002000BF704751
:103C000000BF4A4A128802F04002002AF9D0C2B22C
:103C1000464B1B1D1A80704710B586B00446012123
:103C200044F2040001F062F94FF40070ADF81400A2
:103C300003208DF8160018208DF8170005A93C48C0
:103C400000F098FE4FF48060ADF8140004208DF869
:103C5000170005A9364800F08DFE25208DF80000DC
:103C600003208DF801008DF8020001208DF803007B
:103C7000684600F088F801940020ADF80800ADF81F
:103C80000A00ADF80C00ADF810000C20ADF80E00E5
:103C900001A9264801F0D1F9012240F2255123481B
:103CA00001F063FA0121214801F053FA06B010BD7A
:103CB00010B540F225511D4801F03CFB10B31B48E4
:103CC00001F0B8FAC4B21B48008800F40040C8B93B
:103CD0001848008800F4804060B10A2C03D000200E
:103CE0001449088020E01348008840F4004011493E
:103CF000088019E00D2C06D10E48008840F4804061
:103D00000C49088010E00B480088C0F30D000A49F8
:103D10000C5408480088401C064908800846008862
:103D2000C72801DD0020088010BD000000380140D8
:103D3000000801402000002046000020094880477C
:103D400009480047FEE7FEE7FEE7FEE7FEE7FEE77D
:103D5000FEE7FEE7FEE7FEE704480549054A064B95
:103D600070470000A704000831010008700100201E
:103D700070070020700300207003002031490143C8
:103D8000314A1160704770B5002100230F22C478BA
:103D900004B32D4C246804F4E064C4F5E064210A03
:103DA000C1F10403CA40447804FA03F18478144052
:103DB00021430901254C0678A155047804F01F051C
:103DC0000124AC4005786D11AD0005F1E025C5F882
:103DD000004109E0047804F01F050124AC401C4DAB
:103DE0000678761145F8264070BD1A4A0A4002430B
:103DF000154B1B1F1A60704739B1134A121D126808
:103E00000243114B1B1D1A6006E00F4A121D126877
:103E100082430D4B1B1D1A607047042808D14FF0D8
:103E2000E021096941F004014FF0E022116107E04F
:103E30004FF0E021096921F004014FF0E022116107
:103E4000704700000000FA050CED00E000E400E01F
:103E500080E100E080FFFF1F10B50446FA4884426D
:103E600008D10121401501F05BF80021601501F037
:103E700057F817E0F548844208D10121001501F0F8
:103E80004FF80021201501F04BF80BE0F048844278
:103E900008D10121C80301F043F800214FF400408C
:103EA00001F03EF810BD30B50246002000235068F6
:103EB000E84C20400D790C6844EA0524204350600A
:103EC0009068E54C2040D1E902542C434D7944EAF6
:103ED000450420439060D06A20F470000C7C641E7E
:103EE000E4B2234340EA0350D06230BD00210160B8
:103EF000017141718160C16001210174704721B17C
:103F0000826842F00102826003E0826822F00102CE
:103F10008260704721B1826842F48072826003E05F
:103F2000826822F480728260704710B50023CBB2A1
:103F30001AB144681C43446002E044689C434460F6
:103F400010BD816841F00801816070470146002082
:103F50008A6802F008020AB1012000E000207047E0
:103F6000816841F0040181607047014600208A6841
:103F700002F004020AB1012000E00020704721B1E4
:103F8000826842F4A002826003E0826822F4A00208
:103F900082607047014600208A6802F480020AB1FC
:103FA000012000E00020704710B50A4600210023E0
:103FB000416821F46041531E41EA4331416010BD24
:103FC00021B1426842F40062426003E0426822F498
:103FD000006242607047F0B504460D4600200021A3
:103FE000092D11DDE068A5F10A0606EB4607072654
:103FF00006FA07F18843A5F10A0606EB460603FA1E
:1040000006F10843E0600CE0206905EB4507072650
:1040100006FA07F1884305EB450603FA06F1084363
:104020002061072A0FDA606B561E06EB86071F26F3
:1040300006FA07F18843561E06EB860605FA06F1D6
:104040000843606322E00D2A0FDA206BD61F06EBCF
:1040500086071F2606FA07F18843D61F06EB860659
:1040600005FA06F10843206310E0E06AA2F10D06AC
:1040700006EB86071F2606FA07F18843A2F10D0614
:1040800006EB860605FA06F10843E062F0BD21B1B1
:10409000826842F48012826003E0826822F4801217
:1040A000826070470146C86C80B2704766484C30E9
:1040B0000068704721B1426842F48062426003E0C8
:1040C000426822F480624260704721B1426842F443
:1040D0008052426003E0426822F48052426070479E
:1040E0000A460021816821F4E04111438160704754
:1040F00021B1826842F40042826003E0826822F4C7
:1041000000428260704721B1826842F402128260EC
:1041100003E0826822F402128260704701460020A8
:104120008A6802F400120AB1012000E00020704702
:10413000F0B504461546002000220026092911DDAD
:10414000E068A1F10A0707EB470C072707FA0CF212
:104150009043A1F10A0707EB470703FA07F2104360
:10416000E0600CE0206901EB410C072707FA0CF234
:10417000904301EB410703FA07F210432061A06B63
:10418000C0F30156EF1C06F1010CA7EB0C0707EB7F
:10419000870C1F2707FA0CF29043EF1C06F1010C65
:1041A000A7EB0C0707EB870701FA07F21043A063A0
:1041B000F0BD10B50A4600210023816B21F44011A7
:1041C000531E41EA0351816310BD08B500230093DB
:1041D0000090009B0B440093009B1A6008BD08B53B
:1041E000024600200090009201F12800009B184434
:1041F00000900098006880B208BD0A46002141681E
:10420000164B19401143416070474162826270470A
:104210000A460021416821F01F01114341607047A7
:1042200040B109490831096841F40001064A0832E1
:10423000116007E004490831096821F40001024ACD
:10424000083211607047000000240140002801403E
:10425000003C0140FFFEF0FFFDF7F1FFFFFD3FFFD7
:104260000246002013680B400BB1012000E0002043
:104270007047CA430260704770B5024600200023B1
:1042800000240B125568CEB205EA060415681D40DD
:1042900015B10CB1012000E0002070BD00220A120F
:1042A000D34303607047000030B943F2DB02810062
:1042B000A1F1C0410A6005E043F2D2028100A1F100
:1042C000C0410A606FF07042411C8900A1F1C041F9
:1042D0000A608100A1F1C041C1F804217047102893
:1042E0000AD118214FF020421166402151664FF04B
:1042F000FC319166D16610E01821F74A1160402127
:104300004FF02042C2F884104FF0FC31F24A0832DC
:1043100011604FF02042C2F88C1070471820EE490F
:104320002031086000200906C1F8A4004FF0FC30DD
:10433000E94928310860091D0860091D08607047B7
:10434000D0E901121143C268114302691143426965
:10435000114382691143C2691143026A1143426ADF
:104360001143826A1143C26A1143026B114302680E
:104370009200A2F1C0421160816808290BD1016846
:104380008900A1F1C041096841F04002016889003B
:10439000A1F1C0410A60416B0968426B526841EA71
:1043A0000211426B926841EA0221426B928941EA12
:1043B0000241426B128A41EA0251426B127D41EA8C
:1043C0000261426B926911430268521C9200A2F191
:1043D000C0421160C16AB1F5804F1BD1816B096881
:1043E000826B526841EA0211826B926841EA0221B3
:1043F000826B128A41EA0251826B127D41EA0261AC
:10440000826B9269114302689200A2F1C042C2F825
:10441000041107E06FF0704201688900A1F1C0410A
:10442000C1F80421704730B5002100220023446800
:1044300044F0080485682C43C5682C4305692C4367
:10444000456944EA4524856944EA4531C4692468DC
:10445000C5696D6844EA0524C5692D8944EA0544A7
:10446000C5692D7B44EA0562046A2468056A6D68A3
:1044700044EA0524056A2D8944EA0544056A2D7B32
:1044800044EA05630468102C05D14FF020442166EE
:10449000A266E36608E0904C21604FF02044C4F827
:1044A00088208D4C0C34236030BD016841F0100130
:1044B000426841EA4221826841EA4231864A20321A
:1044C0001160C1680968C268526841EA0221C26885
:1044D000128941EA0241C268127B41EA02617E4AC6
:1044E00028321160016909680269526841EA0221B3
:1044F0000269128941EA02410269127B41EA0261C2
:10450000754A2C321160416909684269526841EA72
:1045100002214269128941EA02414269127B41EA61
:1045200002614FF02042C2F8B010704700210160D4
:104530000221416000218160C160016141618161AE
:10454000C16101624FF480514162490081620021E2
:10455000C16201630F21426B1160426B5160FF2108
:10456000426B91600F21426BD160426B1161426BD3
:1045700051610021426B91610F21826B1160826B4E
:104580005160FF21826B91600F21826BD160826B41
:104590001161826B51610021826B91617047102122
:1045A0000160002141608160C16001614161816100
:1045B000FC21C2691160C2695160C2699160C2691F
:1045C000D160026A1160026A5160026A9160026AF7
:1045D000D16070470021016041608160FC21C268A8
:1045E0001160C2685160C2689160C268D16002699E
:1045F000116002695160026991600269D16042698B
:10460000116042695160426991604269D1607047AE
:1046100051B18200A2F1C042126842F0010382004F
:10462000A2F1C042136009E08200A2F1C042126808
:104630002A4B1A408300A3F1C0431A60704799B116
:10464000102808D14FF02042126E42F004024FF0C1
:1046500020431A661DE0204A126842F004024FF01F
:104660002043C3F8802014E0102809D14FF02042E5
:10467000126E1A4BDB1E1A404FF020431A6608E0F8
:10468000154A1268154BDB1E1A404FF02043C3F841
:104690008020704748B110492031096841F0040179
:1046A0004FF02042C2F8A01009E00B492031096800
:1046B0000A4AD21E11404FF02042C2F8A0107047A3
:1046C000B9B110280CD14FF02042126E42F04002D6
:1046D0004FF020431A661FE0800000A0FEFF0F008D
:1046E000724A126842F040024FF02043C3F8802023
:1046F00012E0102808D14FF02042126E6C4B1A4085
:104700004FF020431A6607E0684A1268684B1A4067
:104710004FF02043C3F88020704701460020102945
:1047200003D14FF02042506F02E0604A143210680B
:10473000704710B5F2B1102807D14FF020435B6EDF
:104740000B434FF02044636632E0B0F5807F08D120
:10475000564B1B1D1B680B434FF02044C4F884309C
:1047600026E0524B24331B680B434FF02044C4F81F
:10477000A4301DE0102807D14FF020435B6E8B431F
:104780004FF02044636613E0B0F5807F08D1474BBB
:104790001B1D1B688B434FF02044C4F8843007E096
:1047A000424B24331B688B434FF02044C4F8A430A1
:1047B00010BD10B5024600200023102A03D14FF08F
:1047C0002044636E09E0B2F5807F03D1374C241D8D
:1047D000236802E0354C2434236803EA01040CB159
:1047E000012000E0002010BD102807D14FF020422A
:1047F000526E8A434FF020435A6613E0B0F5807F33
:1048000008D12A4A121D12688A434FF02043C3F888
:10481000842007E0254A243212688A434FF020435F
:10482000C3F8A420704770B502460020002300247E
:104830000025102A03D14FF02046736E09E0B2F52F
:10484000807F03D1194E361D336802E0174E24369F
:10485000336803EA010403EAD10514B10DB1012064
:1048600000E0002070BD102808D14FF02042526EA9
:1048700022EAD1024FF020435A6615E0B0F5807F5E
:1048800009D10A4A121D126822EAD1024FF02043D0
:10489000C3F8842008E0054A2432126822EAD102D3
:1048A0004FF02043C3F8A42070470000800000A010
:1048B000BFFF0F0010B50446CC48844208D1012147
:1048C000042000F02DFB0021042000F029FB46E02D
:1048D000C748844208D10121082000F021FB0021B3
:1048E000082000F01DFB3AE0C248844208D10121B3
:1048F000102000F015FB0021102000F011FB2EE02D
:10490000BD48844208D10121202000F009FB00218C
:10491000202000F005FB22E0B848844208D10121A4
:10492000402000F0FDFA0021402000F0F9FA16E0E6
:10493000B348844208D10121802000F0F1FA00211F
:10494000802000F0EDFA0AE0AE48844207D1012150
:10495000801500F0E5FA0021A01500F0E1FA10BD85
:1049600010B50121084600F0DBFA0021012000F01B
:10497000D7FA10BD2DE9F04102460025002600209F
:1049800000230024002791F803C00CF00F0591F8D4
:1049900003C00CF0100CBCF1000F03D091F802C062
:1049A0004CEA050591F800C0BCF1000F31D0146845
:1049B00000202BE04FF0010C0CFA00F3B1F800C01E
:1049C0000CEA03069E4220D183004FF00F0C0CFA34
:1049D00003F7BC4305FA03FC4CEA040491F803C056
:1049E000BCF1280F06D14FF0010C0CFA00FCC2F804
:1049F00014C00AE091F803C0BCF1480F05D14FF094
:104A0000010C0CFA00FCC2F810C0401C0828D1D3DD
:104A10001460B1F800C0BCF1FF0F34DD5468002011
:104A20002EE000F1080C4FF0010808FA0CF3B1F881
:104A300000C00CEA03069E4221D183004FF00F0C08
:104A40000CFA03F7BC4305FA03FC4CEA040491F8A2
:104A500003C0BCF1280F05D100F1080C08FA0CF8CE
:104A6000C2F8148091F803C0BCF1480F07D100F1DF
:104A7000080C4FF0010808FA0CF8C2F81080401C2E
:104A80000828CED35460BDE8F0814FF6FF71018055
:104A9000022181700421C170704702460020936892
:104AA0000B400BB1012000E00020704701468868F0
:104AB00080B2704702460020D3680B400BB1012042
:104AC00000E0002070470146C86880B2704701616D
:104AD0007047416170470AB1016100E04161704770
:104AE000C16070474FF480320A4382618161826104
:104AF00082698269704702460020434B18684FF66E
:104B00008073184040EA021008433F4B186070471A
:104B10003E49C8617047F0B50A46002300240021D1
:104B2000002500F00046B6F1004F02D1364EF16983
:104B300001E0354E7168C0F3034583B200F44016BE
:104B4000B6F5401F08D121F070612F4E766826F02F
:104B500070662D4F7E6012E000F48016B6F5801F5F
:104B600006D1032606FA05F4A14341F0706106E080
:104B7000460D360103FA06F6B14341F0706122B1E9
:104B8000460D360103FA06F6314300F00046B6F151
:104B9000004F02D11C4EF16101E01B4E7160F0BD6F
:104BA00030B500228B071C0F0F2303FA04F2164BBB
:104BB00008338C1053F824309343134C08348D1071
:104BC00044F8253023468C1053F824308C07240FEA
:104BD00000FA04F423430C4C08348D1044F82530BB
:104BE00030BD0A49DC310860704700000008014010
:104BF000000C014000100140001401400018014069
:104C0000001C014000200140000001400000204243
:104C1000DF48006840F00100DD4908600846406850
:104C2000DC490840DA49486008460068DA4908402B
:104C3000D74908600846006820F4802008600846CC
:104C4000406820F4FE0048604FF41F008860704701
:104C5000CF49096821F48031CD4A116011460968B5
:104C600021F480211160B0F5803F03D0B0F5802F92
:104C70000ED106E0C649096841F48031C44A11608A
:104C800007E0C349096841F4A021C14A116000E06E
:104C900000BF00BF704710B501460022002300206E
:104CA0004A11012A02D1BA4C236806E0022A02D135
:104CB000B74C236A01E0B64C636A01F01F0201247D
:104CC00094401C400CB1012000E0002010BD38B51C
:104CD000002000900024002500BF3120FFF7DBFFFB
:104CE00005460098401C00900098B0F5A06F01D0D8
:104CF000002DF2D03120FFF7CEFF08B1012400E0F3
:104D00000024204638BD01460020A14A106820F04A
:104D1000F80040EAC10010607047A0490860704781
:104D2000024600209A4B586820F47C1042EA0103A6
:104D30001843974B5860704798490866704701467A
:104D40000020934A506820F00300084350607047E9
:104D50008F48406800F00C007047014600208C4AE4
:104D6000506820F0F0000843506070470146002072
:104D7000874A506820F4E06008435060704701465D
:104D80000020834A506820F4605040EAC10050601F
:104D9000704729B17E4A527A02437D4B5A7204E031
:104DA0007B4A527A82437A4B5A7270477B49D83198
:104DB0000860704701460020754A506820F4404062
:104DC0000843506070470021714A20321170704AC8
:104DD00082F82010012802D004280AD104E0012121
:104DE0006B4A2032117005E00521694A20321170AA
:104DF00000E000BF00BF7047694908607047644920
:104E0000096A0143624A1162704765494439086082
:104E1000704730B500210022002400235C4D6D68EE
:104E200005F00C0121B1042905D0082923D105E0A2
:104E30005C4D056022E05B4D05601FE0544D6D68E0
:104E400005F47012524D6D6805F48034022505EBAF
:104E500092421CB9544D554305600BE04C4D6D68B2
:104E600005F400351DB1504D5543056002E04D4D30
:104E70005543056002E04B4D056000BF00BF444D47
:104E80006D6805F0F0010909484D6B5C0568DD406F
:104E900045603F4D6D6805F4E061090A434D6B5C68
:104EA0004568DD4085603A4D6D6805F46051C90A7A
:104EB0003E4D6B5C4568DD40C560354D6D6805F461
:104EC0004041890B3A4D6B5CC568B5FBF3F5056154
:104ED00030BD29B12E4A526902432D4B5A6104E07C
:104EE0002B4A526982432A4B5A61704729B1284A9A
:104EF00092690243264B9A6104E0254A92698243F3
:104F0000234B9A61704729B1214AD2690243204B51
:104F1000DA6104E01E4AD26982431D4BDA617047B0
:104F200029B11B4AD2680243194BDA6004E0184ADF
:104F3000D2688243164BDA60704729B1144A12696D
:104F40000243134B1A6104E0114A12698243104B69
:104F50001A61704712494039086070470F49C864A8
:104F600070470B49C87170470948406A40F080702B
:104F700007494862704701460020054A92680A4086
:104F80000AB1012000E00020704701498872704793
:104F9000001002400000FFF8FFFFF6FE0000424252
:104FA0008004424200127A0000093D0022000020E5
:104FB0003200002010B50446FB48844209D101218B
:104FC0008803FFF7ADFF00214FF48040FFF7A8FFF3
:104FD00032E0F648844209D101214804FFF7ADFFD1
:104FE00000214FF40030FFF7A8FF25E0F04884428D
:104FF00009D101218804FFF7A0FF00214FF4802090
:10500000FFF79BFF18E0EB48844209D10121C80457
:10501000FFF793FF00214FF40020FFF78EFF0BE016
:10502000E548844208D101210805FFF786FF0021E9
:105030004FF48010FFF781FF10BD2DE9F04786B0D7
:1050400005460E460024A24600BFA1460027B089AF
:1050500000B100BF2F462C8A4CF6FF700440F08848
:1050600004432C82AC894EF6F3100440B088318999
:105070000843718908430443AC81AC8A4FF6FF4072
:105080000440B0890443AC8201A8FFF7C2FEC648C1
:10509000874202D1DDF810A001E0DDF80CA0A8895C
:1050A00000F4004040B10AEBCA0000EB0A1031687E
:1050B0004900B0FBF1F807E00AEBCA0000EB0A1068
:1050C00031688900B0FBF1F86420B8FBF0F004010E
:1050D0002009642101FB1089A88900F4004040B137
:1050E000322000EBC900B0FBF1F000F007000443F0
:1050F00008E0322000EB09106421B0FBF1F000F071
:105100000F0004432C8106B0BDE8F0874FF4165120
:10511000016000218180C18001810C214181002139
:105120008181704710B502460020108A4FF2FF03BC
:1051300018400B884C8823438C882343CC88234316
:105140001843108210BD0021018041808180C18000
:10515000704721B1828942F40052828104E0828941
:105160004DF6FF731A4082817047F0B50346002464
:1051700000260025002040F66A17B94200D100BF82
:105180001846C1F3421401F01F06012707FA06F57D
:10519000012C01D10C3004E0022C01D1103000E0D0
:1051A00014301AB107682F43076002E00768AF4365
:1051B0000760F0BD1AB1838A0B43838202E0838AC1
:1051C0008B4383827047028A4FF6F0731A40028243
:1051D000028A0A430282704782894FF2FF731A40A3
:1051E000828182890A438281704721B1828942F09B
:1051F0000202828104E082894FF6FD731A408281A7
:105200007047028A4FF6DF731A400282028A0A430D
:105210000282704721B1028A42F48042028204E095
:10522000028A4BF6FF731A4002827047C1F30802EC
:105230008280704701468888C0F3080070478189E2
:1052400041F0010181817047028BD2B20283028B4F
:1052500042EA012202837047028B02F47F420283FA
:10526000028B0A430283704721B1828A42F02002F6
:10527000828204E0828A4FF6DF731A40828270478E
:1052800021B1828A42F01002828204E0828A4FF6C3
:10529000EF731A408282704721B1828A42F008027D
:1052A000828204E0828A4FF6F7731A408282704746
:1052B00021B1828942F40042828103E08289C2F3F3
:1052C0000E028281704721B1828A42F4006282829A
:1052D00004E0828A4FF2FF731A4082827047828A0A
:1052E0004FF6FB731A408282828A0A438282704799
:1052F00021B1828A42F00202828204E0828A4FF661
:10530000FD731A408282704702460020B1F5007F8B
:1053100000D100BF13880B400BB1012000E000203A
:10532000704701F40072B2F5007F00D100BFCA439C
:105330000280704770B5024600240023002500203B
:1053400040F66A16B14200D100BFC1F3421501F028
:105350001F03012606FA03F3012D02D1968933407B
:1053600006E0022D02D1168A334001E0968A3340CE
:105370000C12012606FA04F41688344013B10CB15D
:10538000012000E0002070BD10B50022002340F68F
:105390006A14A14200D100BF0A1201249440A3B2B2
:1053A000DC43048010BD0000003801400044004090
:1053B00000480040004C0040005000407047000092
:1053C0000FB4044910B503AA029800F0FFF810BC0E
:1053D0005DF814FB1C0000202DE9F0410E46044648
:1053E000002020622046E168884730B3252805D098
:1053F000D4E901219047206A401CF2E7E168204689
:1054000000278847050018D0A5F14100192802D8C7
:1054100020354FF400673246294620462760FAF7C8
:10542000C1FE40B1012804D0F61D26F0070608365B
:10543000D8E7361DD6E72846DAE7206ABDE8F081CE
:105440002DE9F0410646002410687529314616A55D
:1054500010D0AFF30080002802DA404213A507E025
:1054600031688A0701D512A502E0490704D511A5C4
:10547000012401E0AFF3008000210A2206F1240795
:1054800009E0B0FBF2FCB0FBF2F302FB1C00303091
:1054900078541846491C0028F3D123462A46304642
:1054A000BDE8F04100F038B8000000002D00000019
:1054B0002B0000002000000070B504460D46214678
:1054C0001068AFF300802188090502D50F4A7A449D
:1054D00002E00E4A7A440E32002104F1240305E072
:1054E00000F00F060009965D5E54491C0028F7D1B4
:1054F00020780023000704D5702D02D009B10223C3
:1055000011322046BDE8704000F006B8742000005B
:1055100070477047704770472DE9F0470D46994630
:105520009246044600F124080168880604D5E06923
:1055300021F01001216000E00120A84201DD471B9D
:1055400000E00027A1697A1902EB0900081AA0619E
:105550002078C00602D42046AFF30080002608E081
:10556000D4E901211AF806009047206A401C761CF5
:1055700020624E45F4DB2078C0060AD52046AFF302
:10558000008006E0D4E9012130209047206A401CC9
:105590002062381EA7F10107F4DC07E0D4E90121FD
:1055A00018F805009047206A401C2062281EA5F1CB
:1055B0000105F3DC2046AFF300802078000602D519
:1055C0000220BDE8F0870120FBE70000074B70B523
:1055D0000D467B4400F011F80446284600F020F800
:1055E00010B14FF0FF3070BD204670BD2BE6FFFFBD
:1055F00001694A1C02610878704700B58FB0CDE997
:1056000001310021059105497944CDE90310114686
:105610006846FFF7E1FE0FB000BD0000E5FFFFFFA9
:10562000007B00F080007047754600F02BF8AE4616
:1056300005006946534620F00700854618B020B59E
:10564000FEF78AFBBDE820404FF000064FF0000750
:105650004FF000084FF0000B21F00701AC46ACE81A
:10566000C009ACE8C009ACE8C009ACE8C0098D4687
:10567000704710B50446AFF300802046BDE81040E7
:10568000FAF7A5BD004870471001002021F0004244
:10569000A2F16052B2F5801F01F0004328BFD2F1A1
:1056A0007F6C0BD95FEA001C43EAC20242EB5070E8
:1056B00018BF704728BF20F001007047B2F5801F67
:1056C000BCBF184670474FEA410C1CF5001F02D2C0
:1056D000084600F0D4BA70B500F0F4F80000008974
:1056E000FFF7F6BF4FF00040A0F5800070470000C4
:1056F0004FEA1153A3F58063D3F11E03A8BFD3F182
:10570000200C08DB4FF0004242EAC12252EA50521C
:1057100032FA03F0704709420BD4102BC4BF0020AB
:10572000704703F5787CBCF1FF3F05D04FF0FF30A8
:1057300070474FF00000704770B500F0C3F800BF2D
:105740004992248000207047F0E7B0FA80F310FA05
:1057500003F10AD0C3F11D0303F580634FEA415002
:105760004FEA035202EBD12170474FF0000070471F
:10577000DFF848C170B51CEA111E1EBF1CEA1315E4
:105780009EEA0C0F95EA0C0F00F06F8081EA03048B
:1057900023EA4C134EEAD47E21EA4C1141F48011E5
:1057A00043F48013AE44A1FB024CA0FB0365AEF1B1
:1057B0007F7E361955EB0C05A1FB034C4CF1000321
:1057C000A0FB021C16EB0C06654153F100030942D5
:1057D00018BF46F0010613F4007F0BD14FEA0331E6
:1057E0004FEA0530340341EA155140EA16506FF094
:1057F00003020AE04FEAC3214FEAC520F40241EA5E
:10580000555140EA56506FF0020202EB2E4201EB76
:10581000025585EACE710AD05FEA440C18BF24F025
:10582000004450F1000041F1000120EAD47040F240
:10583000FE7C624500D270BDA84214BF4FF0804488
:105840004FF04044002E08BF0024BEF1806FA8BF77
:10585000A1F1C041BDE8704080F282804FF00000AD
:1058600001F1C04101F0004170479EEA0C0F0CEAC3
:10587000131518BF95EA0C0F06D04FF0000081EA0F
:10588000030E0EF0004170BD00F01CF88900013ECF
:1058900000F007B800F009B84FEA430C5FEA5C5C1F
:1058A00008D081EA030100F05BB84FEA410C5FEADF
:1058B0005C5CF6D14FF00000014970470000FF0723
:1058C0000000F87F0EF1020E2EF0030E5EF8046B5E
:1058D000364205D4012A43EB030515F5001F12D803
:1058E000012841EB010C1CF5001F0CD80ED14FEA2A
:1058F000D17C15F5001F0CEB4C0C0CF1020C08BF11
:105900004CEBD37C04E04FF0080C01E04FEAD37C71
:105910000CEB4C0526FA05F606F00706B6F1040C6A
:1059200006D20EEB860CBDE870404CF0010C6047CF
:10593000DFE80CF0090B02024FF000414FF00000CD
:10594000A1F5002170BD19461046012851EB010454
:1059500018BFD4F5001484BF002001F0004170BDD1
:105960000808A0F500114FEA3101704743004FEAE3
:10597000D30C4FEA3C0C43401FBF40070CF1605171
:1059800013F0FE4F70471CF0006F03D100200CF0A5
:10599000004170470CF0004343EA507010B540EAF4
:1059A000CC0000F026F900BF000000924FEA000191
:1059B000FFF7D6BF4FF000414FF00000A1F50021E6
:1059C0007047000090EA010F48BF81F0004100F1EC
:1059D0006C81421A3CBF801A89184FEAD0524FF0AE
:1059E0007F4C1CEA410FA2EBD15318BF9CEA026F17
:1059F00000F03B804FF0004C4CEA00204CEA0121C3
:105A000021FA03FC10EB0C0C1ED202F1FF325FEA0C
:105A10001C2040EBC25038BF70471CF07F0F4FEA8C
:105A2000400C18BFBCF17F4F38BF7047C3F1200353
:105A3000994008BF20F00100BCF17F4F38BF70478C
:105A4000A0F1C04000F01BB94FEA3C00000A40EB57
:105A5000C25028BF1CF0FF0F4FEA400CE6D018BF21
:105A6000BCF17F4F38BF7047EAE79CEA026F05D070
:105A700010EA5C0F08BF00F00040704710B500F05E
:105A8000B8F800BF64FBBE3EC10DD1F19E0206DB3B
:105A90004FEA002343F0004323FA02F0704700422C
:105AA00007D54FEA4001B1F1FE4F02D24FF000009E
:105AB000704710B500F09DF849922480002070478F
:105AC0006FEA200070470000B0FA80F310FA03F28A
:105AD000C3F19D030AD0D90501EB1220530638BF4C
